:020000040000FA
:06000000DFEF00F012002A
:060018006BEF00F0120086
:06002A000100DC010000F2
:080030008A000000040000003A
:080038002A0EF66E000EF76EB1
:10004000000EF86E00010900F550856F0900F550AB
:10005000866F03E1856701D03DD00900F550806FC0
:100060000900F550816F0900F550826F0900090001
:10007000F550E96E0900F550EA6E09000900090023
:10008000F550836F0900F550846F09000900F6CF21
:1000900087F0F7CF88F0F8CF89F080C0F6FF81C0F5
:1000A000F7FF82C0F8FF0001835302E1845307E0A9
:1000B0000900F550EE6E8307F8E28407F9D787C090
:1000C000F6FF88C0F7FF89C0F8FF00018507000E22
:0600D000865BBFD71200A1
:0A00D600D8CFE4FFE0CFE4FFE46EB2
:1000E000DACFE4FFE2CFDAFFE652F092010E000130
:1000F0008A258A6F000E8B218B6FE552E5CFDAFFE0
:10010000E550E5CFE0FFE5CFD8FF10000F0EC16E40
:10011000040E936E956AF28EF088F1988AC08CF086
:100120008BC08DF0100E0D6E0E6A8CC008F08DC065
:1001300009F0A3EC00F008C08CF009C08DF08CC071
:0601400083FFECD7120062
:0A014600006A0EAEACEF00F00D6C85
:100150000E1EE86A0E22001E09AEB4EF00F0086C15
:10016000091EE86A0922001EC9EC00F009BEC4EFAE
:1001700000F000AE000C086C091EE86A0922046C4D
:10018000051EE86A0522000C00BEBBEF00F00188E6
:02019000FF0C62
:0E019200056A046A100EE76ED890083609362A
:1001A000043605360D50045C0E50055805E30D501D
:0E01B000045E0E50055A082AE72EF0D7120002
:0201BE0015EE3C
:1001C00000F025EE00F0F86A019C1CEC00F0EDEC6C
:0A01D00000F086EC00F0FBD71200EF
:0201DA00120011
:0401DC00000000001F
:020000040030CA
:0100010002FC
:010005008377
:00000001FF
