:020000040000FA
:060000009DEF00F012006C
:06002A0001005801000076
:080030008A000000010000003D
:080038002A0EF66E000EF76EB1
:10004000000EF86E00010900F550856F0900F550AB
:10005000866F03E1856701D03DD00900F550806FC0
:100060000900F550816F0900F550826F0900090001
:10007000F550E96E0900F550EA6E09000900090023
:10008000F550836F0900F550846F09000900F6CF21
:1000900087F0F7CF88F0F8CF89F080C0F6FF81C0F5
:1000A000F7FF82C0F8FF0001835302E1845307E0A9
:1000B0000900F550EE6E8307F8E28407F9D787C090
:1000C000F6FF88C0F7FF89C0F8FF00018507000E22
:0600D000865BBFD71200A1
:0A00D600956A93680F0EC16E81A0B9
:1000E00012D08AC083FF00018A51E8248A6F640E0F
:1000F000E66E86EC00F0E552800E00018A5D02E1BA
:0C010000080E8A6F01D0836AEAD7120053
:04010C00FF0EE350AF
:10011000036EEF0E01D0F30EE76EE72E8DEF00F0C9
:100120000C0E026EE76AE72E93EF00F0022E92EFBC
:0A01300000F0032E8BEF00F0120028
:06013A0015EE00F025EEB9
:1001400000F0F86A019C1CEC00F0ABEC00F06BECEA
:0601500000F0FBD71200D5
:02015600120095
:01015800089E
:020000040030CA
:0100010002FC
:010005008377
:00000001FF
