:020000040000FA
:06000000ECEF00F012001D
:06002A000100F6010000D8
:08003000800000000C0000003C
:080038002A0EF66E000EF76EB1
:10004000000EF86E00010900F550916F0900F5509F
:10005000926F03E1916701D03DD00900F5508C6F9C
:100060000900F5508D6F0900F5508E6F09000900E9
:10007000F550E96E0900F550EA6E09000900090023
:10008000F5508F6F0900F550906F09000900F6CF09
:1000900093F0F7CF94F0F8CF95F08CC0F6FF8DC0B9
:1000A000F7FF8EC0F8FF00018F5302E1905307E085
:1000B0000900F550EE6E8F07F8E29007F9D793C06C
:1000C000F6FF94C0F7FF95C0F8FF00019107000EFE
:0600D000925BBFD7120095
:0A00D6000F0EC16E030E946E956AC2
:1000E000470EE66E90EC00F0E552B1EC00F0F3CF75
:1000F0008AF0F4CF8BF0800E00018A25E96E000EA5
:100100008B21EA6EEF50836E82B208D0000EE66E4D
:10011000E66AD0EC00F0E552E552F6D7E6D71200D9
:10012000D9CFE6FFDACFE6FFE1CFD9FFE2CFDAFFA2
:10013000FD0EDB507E0BCD6EFD0EDBAC02D0CD8E06
:1001400001D0CD9ECF6ACE6A9E90DBAE02D09D805C
:1001500001D09D90CD80E552E5CFDAFFE7CFD9FF02
:0201600012008B
:0E016200D9CFE6FFDACFE6FFE1CFD9FFE2CF3B
:10017000DAFFE652E652CE50DF6E010ECFCFDBFF44
:10018000DECF02F0DDCF03F002C0F3FF03C0F4FFC7
:10019000E552E552E552E5CFDAFFE7CFD9FF12008D
:1001A000D9CFE6FFDACFE6FFE1CFD9FFE2CFDAFF22
:1001B000E652E652FC0EDBCFDEFFDBCFDDFF010EA9
:1001C000DB50CF6EDF50CE6EE552E552E552E5CF03
:0801D000DAFFE7CFD9FF1200AE
:0801D80015EE00F025EE00F029
:1001E000F86A019C1CEC00F0FAEC00F06BEC00F0FB
:0401F000FBD7120027
:0201F4001200F7
:0A01F600C0F9A4B0999282F880903D
:020200000000FC
:020000040030CA
:0100010002FC
:010003001EDE
:010005008377
:00000001FF
