:020000040000FA
:06000000F1EF00F0120018
:06002A00010000020000CD
:08003000960000000200000030
:080038002A0EF66E000EF76EB1
:10004000000EF86E00010900F550916F0900F5509F
:10005000926F03E1916701D03DD00900F5508C6F9C
:100060000900F5508D6F0900F5508E6F09000900E9
:10007000F550E96E0900F550EA6E09000900090023
:10008000F5508F6F0900F550906F09000900F6CF09
:1000900093F0F7CF94F0F8CF95F08CC0F6FF8DC0B9
:1000A000F7FF8EC0F8FF00018F5302E1905307E085
:1000B0000900F550EE6E8F07F8E29007F9D793C06C
:1000C000F6FF94C0F7FF95C0F8FF00019107000EFE
:0600D000925BBFD7120095
:0A00D600D9CFE6FFDACFE6FFE1CF55
:1000E000D9FFE2CFDAFFAC6AAB6AFD0EDBB0AC88B9
:1000F000DBA202D0AC8CAB8CDBB4AC8EDBA602D026
:10010000AB8801D0AB8ADBA802D0AC8401D0AC9420
:100110009E98DBAC02D09D8A01D09D9A9E9ADBAE60
:1001200002D09D8801D09D98FB0EDB50AF6EFB0E78
:10013000FC0EDBCF03F003C002F0036A0250B06E86
:10014000AC8AAB8EE552E5CFDAFFE7CFD9FF1200DC
:1001500012000F0EC16E800E946E9268330EE66E22
:10016000E66A3C0EE66E6BEC00F0E552E552E552B5
:10017000300EE66EDAEC00F0E55280B6FED780A6CF
:10018000FED7010E00019625966F000E9721976FFE
:10019000ACA2FED7080EE66EDAEC00F0E552ACA297
:1001A000FED7300E00019625E66EDAEC00F0E5523F
:0401B000E4D712007E
:0C01B400D9CFE6FFDACFE6FFE1CFD9FF9C
:1001C000E2CFDAFFACAC04D0AC90000198B3AC80C5
:1001D000FD0EDB50AD6EE552E5CFDAFFE7CFD9FF7C
:0201E00012000B
:0E01E20015EE00F025EE00F0F86A019C1CEC12
:0E01F00000F0FFEC00F0A9EC00F0FBD71200CD
:0201FE001200ED
:020200000000FC
:020000040030CA
:0100010002FC
:0100020018E5
:010003001EDE
:010005008179
:010006008178
:00000001FF
