:020000040000FA
:0600000097EF00F0120072
:02002A000000D4
:04002C002A0EF66E34
:10003000000EF76E000EF86E00010900F550856F96
:100040000900F550866F03E1856701D03DD00900B6
:10005000F550806F0900F550816F0900F550826FEF
:1000600009000900F550E96E0900F550EA6E090033
:1000700009000900F550836F0900F550846F0900ED
:100080000900F6CF87F0F7CF88F0F8CF89F080C06D
:10009000F6FF81C0F7FF82C0F8FF0001835302E141
:1000A000845307E00900F550EE6E8307F8E28407F9
:1000B000F9D787C0F6FF88C0F7FF89C0F8FF0001B5
:0A00C0008507000E865BBFD7120013
:0600CA009368956A0F0E19
:1000D000C16E8150020B01E0010E026E8150010BD6
:1000E0000A0DF350022400018A6F8B6B0B0E8A19E4
:1000F00001E18B5118E00A0E8A1901E18B5110E0E1
:10010000010E8A1901E18B5108E08A5101E18B51FE
:1001100001E00CD0100E836E09D0200E836E06D045
:0E012000400E836E03D0800E836E00D012005E
:02012E0015EECC
:1001300000F025EE00F0F86A019C16EC00F0A5EC4A
:0A01400000F065EC00F0FBD71200A0
:02014A001200A1
:020000040030CA
:0100010002FC
:010005008377
:00000001FF
