:020000040000FA
:060000000DEF01F01200FB
:06002A0001003802000095
:080030008A000000040000003A
:080038002A0EF66E000EF76EB1
:10004000000EF86E00010900F550856F0900F550AB
:10005000866F03E1856701D03DD00900F550806FC0
:100060000900F550816F0900F550826F0900090001
:10007000F550E96E0900F550EA6E09000900090023
:10008000F550836F0900F550846F09000900F6CF21
:1000900087F0F7CF88F0F8CF89F080C0F6FF81C0F5
:1000A000F7FF82C0F8FF0001835302E1845307E0A9
:1000B0000900F550EE6E8307F8E28407F9D787C090
:1000C000F6FF88C0F7FF89C0F8FF00018507000E22
:0600D000865BBFD71200A1
:0A00D6000F0EC16E956A946A9368DC
:1000E000FE0EE66EDCEC00F0E5528CC080FF81B0C5
:1000F00009D081A0FED7320E00018A258A6F000E3A
:100100008B218B6F81B207D081A2FED70001320E06
:100110008A5F000E8B5B00018A518B1102E18A6BB2
:100120008B6B8A5102E1040E8B1908E18A5102E1BE
:10013000040E8B1902E0000E01D0010E7C0EE66E5B
:10014000F7EC00F0E5528AC0E6FF8BC0E6FFADECAD
:0A01500000F0E552E552C9D7120095
:06015A00D9CFE6FFDACF69
:10016000E6FFE1CFD9FFE2CFDAFFE652E652FC0E1E
:10017000DBCF02F0FD0EDBCF03F0060ED890023687
:100180000336E804FBE102C0DEFF03C0DDFF010E21
:10019000DB50BE6EDF50E840E8403F0B300B026E94
:1001A000CF0EBD140210BD6EE552E552E552E5CF0B
:0801B000DAFFE7CFD9FF1200CE
:0801B800D9CFE6FFDACFE6FF24
:1001C000E1CFD9FFE2CFDAFFFD0EDB50FB0BCA6EA9
:1001D000CC6A9E92FD0EDBAE02D09D8201D09D9234
:0E01E000CA84E552E5CFDAFFE7CFD9FF12005F
:0201EE00D9CF67
:1001F000E6FFDACFE6FFE1CFD9FFE2CFDAFF0C0E60
:10020000BD6ECA94FD0EDB50CB6E9494CA84E55249
:0A021000E5CFDAFFE7CFD9FF1200B7
:06021A0015EE00F025EED8
:1002200000F0F86A019C1CEC00F01BEC01F06BEC98
:0602300000F0FBD71200F4
:020236001200B4
:0402380000000000C2
:020000040030CA
:0100010002FC
:010003001EDE
:010005008377
:00000001FF
