:020000040000FA
:060000002CEF01F01200DC
:02002A000000D4
:04002C00D9CFE6FF43
:10003000E1CFD9FF020EE1268392DE6ADD6ADECFD0
:1000400002F0DDCF03F0D890035004E6080E025C06
:10005000000E035815E2FE0EDB50800B010802E192
:10006000838001D08390FE0EDB50020DFE0EF3CF95
:10007000DBFF83828392DF2A010E01E3DB2ADFD7D5
:1000800083948384020EE15C02E2E16AE552E16E50
:10009000E552E7CFD9FF1200D9CFE6FFE1CFD9FF74
:1000A0000C0EE126C00EF36E020EF3CFDBFFF90E4D
:1000B000F36E030EF3CFDBFFA40EF36E040EF3CF4B
:1000C000DBFFB00EF36E050EF3CFDBFF990EF36E80
:1000D000060EF3CFDBFF920EF36E070EF3CFDBFFBE
:1000E000820EF36E080EF3CFDBFFF80EF36E090EEF
:1000F000F3CFDBFF800EF36E0A0EF3CFDBFF900E23
:10010000F36E0B0EF3CFDBFFDE6ADD6ADECF02F0AB
:10011000DDCF03F0D890035004E60A0E025C000E17
:1001200003581BE2D950020F026EDACF03F0DE5003
:100130000224E96EDD500320EA6EEF50E66E76DFB2
:10014000E55283948384640EE66E15EC01F0E5526B
:10015000DF2A010E01E3DB2AD9D70C0EE15C02E2B3
:10016000E16AE552E16EE552E7CFD9FF12008394D0
:10017000320EE66E3AEC01F0E5528384839412006D
:0C018000956A0F0EC16E88DFFED71200DA
:04018C002A0EF66ED3
:10019000000EF76E000EF86E00010900F550856F35
:1001A0000900F550866F03E1856701D03DD0090055
:1001B000F550806F0900F550816F0900F550826F8E
:1001C00009000900F550E96E0900F550EA6E0900D2
:1001D00009000900F550836F0900F550846F09008C
:1001E0000900F6CF87F0F7CF88F0F8CF89F080C00C
:1001F000F6FF81C0F7FF82C0F8FF0001835302E1E0
:10020000845307E00900F550EE6E8307F8E2840797
:10021000F9D787C0F6FF88C0F7FF89C0F8FF000153
:0A0220008507000E865BBFD71200B1
:06022A00FF0EE350056E1B
:10023000EF0E01D0F30EE76EE72E1CEF01F00C0E6F
:10024000046EE76AE72E22EF01F0042E21EF01F0A1
:08025000052E1AEF01F0120067
:0802580015EE00F025EE00F0A8
:10026000F86A019CC6EC00F045EC01F0C0EC00F02F
:04027000FBD71200A6
:0C027400FF0EE350E84E1200000000D026
:0A02800000D000D0E82EFAD71200DB
:02028A00120060
:020000040030CA
:0100010002FC
:010005008377
:00000001FF
