:020000040000FA
:0600000013EF01F01200F5
:06002A0001004402000089
:080030008C000000020000003A
:08003800D9CFE6FFE1CFD9FFAB
:10004000020EE126DE6ADD6AFD0EDBCF10F0FE0E49
:10005000DBCF11F00C0E0D6E0E6A10C008F011C04F
:1000600009F0C0EC00F004C010F005C011F010C0A1
:10007000DEFF11C0DDFFDECF10F0DDCF11F010C0CC
:10008000F3FF11C0F4FF020EE15C03E200D0E16A6D
:10009000E552E16EE552E7CFD9FF1200100E936EE4
:1000A0000F0EC16E81B812D0320EE66EE6EC00F093
:1000B000E55200018C2B000E8D238D3504E28C510E
:1000C000FF08000E8D5502E28C6B8D6B8CC0E6FF35
:1000D0008DC0E6FFB1DFE552E552F350816EE2D705
:0200E00012000C
:0E00E2002A0EF66E000EF76E000EF86E00018C
:1000F0000900F550856F0900F550866F03E18567AB
:1001000001D03DD00900F550806F0900F550816F96
:100110000900F550826F09000900F550E96E0900E9
:10012000F550EA6E090009000900F550836F0900D7
:10013000F550846F09000900F6CF87F0F7CF88F0FB
:10014000F8CF89F080C0F6FF81C0F7FF82C0F8FFCA
:100150000001835302E1845307E00900F550EE6E7D
:100160008307F8E28407F9D787C0F6FF88C0F7FF56
:1001700089C0F8FF00018507000E865BBFD712001B
:10018000006A0EAEC9EF00F00D6C0E1EE86A0E227A
:10019000001E09AED1EF00F0086C091EE86A0922C2
:1001A000001EFDEC00F009BEE1EF00F000AE000C17
:1001B000086C091EE86A0922046C051EE86A05221B
:0C01C000000C00BED8EF00F00188FF0C1E
:0401CC00FF0EE350EF
:1001D000136EEF0E01D0F30EE76EE72EEDEF00F099
:1001E0000C0E126EE76AE72EF3EF00F0122EF2EF1C
:0A01F00000F0132EEBEF00F01200F8
:0601FA00056A046A100E04
:10020000E76ED89008360936043605360D50045C82
:100210000E50055805E30D50045E0E50055A082A8D
:06022000E72EF0D71200EA
:0A02260015EE00F025EE00F0F86A76
:10023000019C71EC00F021EC01F04EEC00F0FBD7DA
:020240001200AA
:020242001200A8
:020244000000B8
:020000040030CA
:0100010002FC
:010005008377
:00000001FF
