:020000040000FA
:06000000A1EF00F0120068
:06002A000100600100006E
:080030008A000000020000003C
:080038002A0EF66E000EF76EB1
:10004000000EF86E00010900F550856F0900F550AB
:10005000866F03E1856701D03DD00900F550806FC0
:100060000900F550816F0900F550826F0900090001
:10007000F550E96E0900F550EA6E09000900090023
:10008000F550836F0900F550846F09000900F6CF21
:1000900087F0F7CF88F0F8CF89F080C0F6FF81C0F5
:1000A000F7FF82C0F8FF0001835302E1845307E0A9
:1000B0000900F550EE6E8307F8E28407F9D787C090
:1000C000F6FF88C0F7FF89C0F8FF00018507000E22
:0600D000865BBFD71200A1
:0A00D6000F0E936EC16E81A217D0C9
:1000E0008AC081FF0001D8908A378B37640EE66E94
:1000F0008AEC00F0E55200018B3504E28A51C00819
:10010000000E8B5503E2300E8A6F8B6B01D0816A33
:04011000E5D712001D
:0C011400FF0EE350036EEF0E01D0F30E5F
:10012000E76EE72E91EF00F00C0E026EE76AE72E05
:1001300097EF00F0022E96EF00F0032E8FEF00F005
:020140001200AB
:0E01420015EE00F025EE00F0F86A019C1CECB2
:0E01500000F0AFEC00F06BEC00F0FBD71200FB
:02015E0012008D
:0201600030006D
:020000040030CA
:0100010002FC
:010005008377
:00000001FF
