:020000040000FA
:0600000087EF01F0120081
:0400080016EF00F0FF
:040018008EEF00F077
:02002A000000D4
:04002C00DACFE4FF44
:10003000E2CFDAFFE9CFE4FFEACFE4FFF6CFE4FF57
:10004000F7CFE4FFF5CFE4FFF3CFE4FFF4CFE4FF15
:10005000FACFE4FF00EE04F0020EE80403E3EECF73
:10006000E4FFFBD700EE08F0000EE80403E3EECF58
:10007000E4FFFBD7E652D9CFE6FFE1CFD9FF020E6E
:10008000E126F292DE6ADD6ADECF02F0DDCF03F018
:10009000D890035004E6050E025C000E035811E2EE
:1000A0008380640EE66E70EC01F0E5528390640E7E
:1000B000E66E70EC01F0E552DF2A010E01E3DB2A67
:1000C000E3D7020EE15C02E2E16AE552E16EE5523D
:1000D000E7CFD9FFE55200EE07F0000EE80403E396
:1000E000E5CFEDFFFBD700EE05F0020EE80403E3D9
:1000F000E5CFEDFFFBD7E5CFFAFFE5CFF4FFE5CF86
:10010000F3FFE5CFF5FFE5CFF7FFE5CFF6FFE5CF4E
:10011000EAFFE5CFE9FFE5CFDAFF1100DACFE4FF30
:10012000E2CFDAFFE9CFE4FFEACFE4FFF6CFE4FF66
:10013000F7CFE4FFF5CFE4FFF3CFE4FFF4CFE4FF24
:10014000FACFE4FF00EE04F0020EE80403E3EECF82
:10015000E4FFFBD700EE08F0000EE80403E3EECF67
:10016000E4FFFBD7E652D9CFE6FFE1CFD9FF020E7D
:10017000E126F090DE6ADD6ADECF00F0DDCF01F02F
:10018000D890015004E6050E005C000E015811E203
:100190008382640EE66E70EC01F0E5528392640E89
:1001A000E66E70EC01F0E552DF2A010E01E3DB2A76
:1001B000E3D7020EE15C02E2E16AE552E16EE5524C
:1001C000E7CFD9FFE55200EE07F0000EE80403E3A5
:1001D000E5CFEDFFFBD700EE05F0020EE80403E3E8
:1001E000E5CFEDFFFBD7E5CFFAFFE5CFF4FFE5CF95
:1001F000F3FFE5CFF5FFE5CFF7FFE5CFF6FFE5CF5E
:10020000EAFFE5CFE9FFE5CFDAFF11000F0EC16E7F
:10021000030E936E956AF28EF288F19CF086F19A45
:10022000D08EF28CF09C8384320EE66E70EC01F07E
:10023000E5528394320EE66E70EC01F0E552F3D78E
:020240001200AA
:0E0242002A0EF66E000EF76E000EF86E00012A
:100250000900F550856F0900F550866F03E1856749
:1002600001D03DD00900F550806F0900F550816F35
:100270000900F550826F09000900F550E96E090088
:10028000F550EA6E090009000900F550836F090076
:10029000F550846F09000900F6CF87F0F7CF88F09A
:1002A000F8CF89F080C0F6FF81C0F7FF82C0F8FF69
:1002B0000001835302E1845307E00900F550EE6E1C
:1002C0008307F8E28407F9D787C0F6FF88C0F7FFF5
:1002D00089C0F8FF00018507000E865BBFD71200BA
:1002E000FF0EE350076EEF0E01D0F30EE76EE72E20
:1002F00077EF01F00C0E066EE76AE72E7DEF01F056
:0E030000062E7CEF01F0072E75EF01F01200C3
:02030E0015EEEA
:1003100000F025EE00F0F86A059C21EC01F095EC68
:0A03200001F006EC01F0FBD712001B
:02032A001200BF
:020000040030CA
:0100010002FC
:010005008377
:00000001FF
