:020000040000FA
:06000000B6EF00F0120053
:02002A000000D4
:04002C002A0EF66E34
:10003000000EF76E000EF86E00010900F550856F96
:100040000900F550866F03E1856701D03DD00900B6
:10005000F550806F0900F550816F0900F550826FEF
:1000600009000900F550E96E0900F550EA6E090033
:1000700009000900F550836F0900F550846F0900ED
:100080000900F6CF87F0F7CF88F0F8CF89F080C06D
:10009000F6FF81C0F7FF82C0F8FF0001835302E141
:1000A000845307E00900F550EE6E8307F8E28407F9
:1000B000F9D787C0F6FF88C0F7FF89C0F8FF0001B5
:0A00C0008507000E865BBFD7120013
:0600CA00D9CFE6FFE1CFF3
:1000D000D9FF020EE126DE6ADD6ADECF00F0DDCF59
:1000E00001F0FD0EDBCF02F0FE0EDBCF03F001507E
:1000F0000318E8AE02D0033404D00250005C035071
:1001000001580AE2C80EE66E9FEC00F0E552DF2AC5
:10011000010E01E3DB2AE1D7020EE15C02E2E16AB3
:10012000E552E16EE552E7CFD9FF1200818E010E54
:0E013000E66EE66ACADFE552E552F8D7120025
:02013E00FF0EB2
:10014000E350076EEF0E01D0F30EE76EE72EA6EF39
:1001500000F00C0E066EE76AE72EACEF00F0062EFC
:0C016000ABEF00F0072EA4EF00F012003F
:04016C0015EE00F09C
:1001700025EE00F0F86A059C16EC00F0C4EC00F0E7
:0801800096EC00F0FBD7120021
:02018800120063
:020000040030CA
:0100010002FC
:010005008179
:00000001FF
