:020000040000FA
:0600000008EF01F0120000
:060018001CEF00F01200D5
:06002A0001002E0200009F
:080030008A000000040000003A
:08003800D8CFE4FFE0CFE4FFA4
:10004000E46EDACFE4FFE2CFDAFFE9CFE4FFEACFF4
:10005000E4FFF6CFE4FFF7CFE4FFF5CFE4FFF3CF03
:10006000E4FFF4CFE4FFFACFE4FF00EE00F0020E6D
:10007000E80403E3EECFE4FFFBD700EE04F0000E4C
:10008000E80403E3EECFE4FFFBD7E652F29200016F
:100090008A6B8B6B0A0E8BAF02D0D89003D08A5D2F
:1000A000000E8B5911E28188640EE66EF1EC00F0CF
:1000B000E5528198640EE66EF1EC00F0E552000125
:1000C0008A2B000E8B23E6D7E55200EE03F0000EDC
:1000D000E80403E3E5CFEDFFFBD700EE01F0020EED
:1000E000E80403E3E5CFEDFFFBD7E5CFFAFFE5CF6B
:1000F000F4FFE5CFF3FFE5CFF5FFE5CFF7FFE5CF61
:10010000F6FFE5CFEAFFE5CFE9FFE5CFDAFFE550FF
:10011000E5CFE0FFE5CFD8FF10000F0EC16E070E50
:10012000936EF28EF288F19C8186640EE66EF1EC9D
:1001300000F0E5528196640EE66EF1EC00F0E552B7
:04014000F3D71200DF
:0C0144002A0EF66E000EF76E000EF86E2C
:1001500000010900F550856F0900F550866F03E135
:10016000856701D03DD00900F550806F0900F5503A
:10017000816F0900F550826F09000900F550E96EA2
:100180000900F550EA6E090009000900F550836F77
:100190000900F550846F09000900F6CF87F0F7CF0A
:1001A00088F0F8CF89F080C0F6FF81C0F7FF82C0E9
:1001B000F8FF0001835302E1845307E00900F55082
:1001C000EE6E8307F8E28407F9D787C0F6FF88C090
:1001D000F7FF89C0F8FF00018507000E865BBFD7D7
:0201E00012000B
:0E01E200FF0EE350036EEF0E01D0F30EE76E3A
:1001F000E72EF8EF00F00C0E026EE76AE72EFEEF36
:1002000000F0022EFDEF00F0032EF6EF00F01200DA
:1002100015EE00F025EE00F0F86A019CA2EC00F06B
:0C02200016EC01F08DEC00F0FBD7120092
:02022C001200BE
:02022E000000CE
:020230000800C4
:020000040030CA
:0100010002FC
:010005008377
:00000001FF
