:020000040000FA
:0600000095EF00F0120074
:02002A000000D4
:04002C002A0EF66E34
:10003000000EF76E000EF86E00010900F550856F96
:100040000900F550866F03E1856701D03DD00900B6
:10005000F550806F0900F550816F0900F550826FEF
:1000600009000900F550E96E0900F550EA6E090033
:1000700009000900F550836F0900F550846F0900ED
:100080000900F6CF87F0F7CF88F0F8CF89F080C06D
:10009000F6FF81C0F7FF82C0F8FF0001835302E141
:1000A000845307E00900F550EE6E8307F8E28407F9
:1000B000F9D787C0F6FF88C0F7FF89C0F8FF0001B5
:0A00C0008507000E865BBFD7120013
:0600CA00D9CFE6FFDACFFA
:1000D000E6FFE1CFD9FFE2CFDAFFFD0EDB50FB0BED
:1000E000CA6ECC6A9E92FD0EDBAE02D09D8201D01C
:1000F0009D92CA84E552E5CFDAFFE7CFD9FF12001F
:10010000010E936E0F0EC16E060EE66E65EC00F0EA
:10011000E552EA0ECB6E81A005D09EA2FED79E923C
:0A0120008174F9D78194F7D712001B
:06012A0015EE00F025EEC9
:1001300000F0F86A019C16EC00F0A3EC00F080ECF3
:0601400000F0FBD71200E5
:020146001200A5
:020000040030CA
:0100010002FC
:010003001EDE
:010005008377
:00000001FF
