:020000040000FA
:060000004AEF01F01200BE
:06002A000100B20200001B
:080030008A000000020000003C
:080038002A0EF66E000EF76EB1
:10004000000EF86E00010900F550856F0900F550AB
:10005000866F03E1856701D03DD00900F550806FC0
:100060000900F550816F0900F550826F0900090001
:10007000F550E96E0900F550EA6E09000900090023
:10008000F550836F0900F550846F09000900F6CF21
:1000900087F0F7CF88F0F8CF89F080C0F6FF81C0F5
:1000A000F7FF82C0F8FF0001835302E1845307E0A9
:1000B0000900F550EE6E8307F8E28407F9D787C090
:1000C000F6FF88C0F7FF89C0F8FF00018507000E22
:0600D000865BBFD71200A1
:0A00D6000F0EC16E010E936E946AC6
:1000E000FE0EE66E03EC01F0E552310EE66E1EECFC
:1000F00001F0E552B40EE66EE66AAEEC00F0E552B1
:10010000E55281B0FED781A0FED700018A2B000EF8
:100110008B238AC010F08BC011F0020E0D6E0E6A98
:1001200010C008F011C009F0DDEC00F004C010F0C0
:1001300005C011F01050111008E13C0EE66EE66AA1
:10014000AEEC00F0E552E55207D08C0EE66EE66AA2
:0C015000AEEC00F0E552E552D4D71200EE
:04015C00D9CFE6FF12
:10016000DACFE6FFE1CFD9FFE2CFDAFFE652E6527F
:10017000FC0EDBCF10F0FD0EDBCF11F0060ED89099
:1001800010361136E804FBE110C0DEFF11C0DDFFC0
:10019000010EDB50BE6EDF50E840E8403F0B300BF5
:1001A000106ECF0EBD141010BD6EE552E552E55233
:0A01B000E5CFDAFFE7CFD9FF120018
:0601BA00006A0EAEE6EF44
:1001C00000F00D6C0E1EE86A0E22001E09AEEEEF66
:1001D00000F0086C091EE86A0922001E34EC01F0E8
:1001E00009BEFEEF00F000AE000C086C091EE86AC4
:1001F0000922046C051EE86A0522000C00BEF5EF1A
:0602000000F00188FF0C74
:0A020600D9CFE6FFDACFE6FFE1CF23
:10021000D9FFE2CFDAFFFD0EDB50FB0BCA6ECC6AD2
:100220009E92FD0EDBAE02D09D8201D09D92CA84CB
:0C023000E552E5CFDAFFE7CFD9FF12005E
:04023C00D9CFE6FF31
:10024000DACFE6FFE1CFD9FFE2CFDAFF0C0EBD6EC9
:10025000CA94FD0EDB50CB6E9494CA84E552E5CF70
:08026000DAFFE7CFD9FF12001D
:08026800056A046A100EE76E3E
:10027000D89008360936043605360D50045C0E5009
:10028000055805E30D50045E0E50055A082AE72E66
:04029000F0D7120091
:0C02940015EE00F025EE00F0F86A019C69
:1002A0001CEC00F058EC01F06BEC00F0FBD71200F6
:0202B00012003A
:0202B20000004A
:020000040030CA
:0100010002FC
:010003001EDE
:010005008377
:00000001FF
