:020000040000FA
:06000000A1EF00F0120068
:02002A000000D4
:04002C002A0EF66E34
:10003000000EF76E000EF86E00010900F550856F96
:100040000900F550866F03E1856701D03DD00900B6
:10005000F550806F0900F550816F0900F550826FEF
:1000600009000900F550E96E0900F550EA6E090033
:1000700009000900F550836F0900F550846F0900ED
:100080000900F6CF87F0F7CF88F0F8CF89F080C06D
:10009000F6FF81C0F7FF82C0F8FF0001835302E141
:1000A000845307E00900F550EE6E8307F8E28407F9
:1000B000F9D787C0F6FF88C0F7FF89C0F8FF0001B5
:0A00C0008507000E865BBFD7120013
:0600CA00926A200E946E04
:1000D000030E00018A6F8B6B0F0EC16E82AA17D0C0
:1000E0008AC080FF0001D8908A378B37640EE66E95
:1000F0008AEC00F0E55200018B3504E28A510C08CD
:10010000000E8B5503E2030E8A6F8B6B01D0806A61
:04011000E5D712001D
:0C011400FF0EE350036EEF0E01D0F30E5F
:10012000E76EE72E91EF00F00C0E026EE76AE72E05
:1001300097EF00F0022E96EF00F0032E8FEF00F005
:020140001200AB
:0E01420015EE00F025EE00F0F86A019C16ECB8
:0E01500000F0AFEC00F065EC00F0FBD7120001
:02015E0012008D
:020000040030CA
:0100010002FC
:010005008377
:00000001FF
