:020000040000FA
:06000000D9EF00F0120030
:06002A000100D0010000FE
:080030008A0000000A00000034
:08003800D9CFE6FFE1CFD9FFAB
:10004000020EE1268392DE6ADD6ADECF02F0DDCFAA
:1000500003F0D890035004E6080E025C000E03582B
:1000600012E2FE0EDBAE02D0838001D08390DB5023
:10007000020DFE0EF3CFDBFF83828392DF2A010E97
:1000800001E3DB2AE2D783948384020EE15C02E27F
:10009000E16AE552E16EE552E7CFD9FF1200D9CF10
:1000A000E6FFE1CFD9FF020EE126DE6ADD6A0F0E20
:1000B000C16E010E936E956AC00E816EDECFE9FFB0
:1000C000DDCFEAFF8A0EE926000EEA22EF50E66E47
:1000D000B3DFE55281A0FED781B0FED7010EDE2648
:1000E000000EDD22DECF02F0DDCF03F0033404E2A8
:1000F00002500908000E035402E2DE6ADD6ADED710
:10010000020EE15C02E2E16AE552E16EE552E7CF00
:04011000D9FF120001
:0C0114002A0EF66E000EF76E000EF86E5C
:1001200000010900F550856F0900F550866F03E165
:10013000856701D03DD00900F550806F0900F5506A
:10014000816F0900F550826F09000900F550E96ED2
:100150000900F550EA6E090009000900F550836FA7
:100160000900F550846F09000900F6CF87F0F7CF3A
:1001700088F0F8CF89F080C0F6FF81C0F7FF82C019
:10018000F8FF0001835302E1845307E00900F550B2
:10019000EE6E8307F8E28407F9D787C0F6FF88C0C0
:1001A000F7FF89C0F8FF00018507000E865BBFD707
:0201B00012003B
:0E01B20015EE00F025EE00F0F86A019C8AECD4
:0E01C00000F0E7EC00F04FEC00F0FBD712006F
:0201CE0012001D
:0A01D000C0F9A4B0999282F8809063
:020000040030CA
:0100010002FC
:010005008377
:00000001FF
